{
  "contractName": "Adoption",
  "abi": [
    {
      "constant": true,
      "inputs": [
        {
          "name": "",
          "type": "uint256"
        }
      ],
      "name": "adopters",
      "outputs": [
        {
          "name": "",
          "type": "address"
        }
      ],
      "payable": false,
      "stateMutability": "view",
      "type": "function",
      "signature": "0x43ae80d3"
    },
    {
      "constant": true,
      "inputs": [
        {
          "name": "",
          "type": "uint256"
        }
      ],
      "name": "cnames",
      "outputs": [
        {
          "name": "",
          "type": "uint256"
        }
      ],
      "payable": false,
      "stateMutability": "view",
      "type": "function",
      "signature": "0x92b280dc"
    },
    {
      "constant": false,
      "inputs": [
        {
          "name": "petId",
          "type": "uint256"
        }
      ],
      "name": "adopt",
      "outputs": [
        {
          "name": "",
          "type": "uint256"
        }
      ],
      "payable": false,
      "stateMutability": "nonpayable",
      "type": "function",
      "signature": "0x8588b2c5"
    },
    {
      "constant": true,
      "inputs": [],
      "name": "getAdopters",
      "outputs": [
        {
          "name": "",
          "type": "address[16]"
        },
        {
          "name": "",
          "type": "uint256[16]"
        }
      ],
      "payable": false,
      "stateMutability": "view",
      "type": "function",
      "signature": "0x3de4eb17"
    },
    {
      "constant": true,
      "inputs": [],
      "name": "getcname",
      "outputs": [
        {
          "name": "",
          "type": "uint256[16]"
        }
      ],
      "payable": false,
      "stateMutability": "view",
      "type": "function",
      "signature": "0x7c18bb0d"
    }
  ],
  "bytecode": "0x608060405234801561001057600080fd5b50610449806100206000396000f3fe60806040526004361061006d576000357c0100000000000000000000000000000000000000000000000000000000900463ffffffff1680633de4eb171461007257806343ae80d3146100c55780637c18bb0d146101405780638588b2c51461019357806392b280dc146101e2575b600080fd5b34801561007e57600080fd5b50610087610231565b6040518082601060200280838360005b838110156100b2578082015181840152602081019050610097565b5050505090500191505060405180910390f35b3480156100d157600080fd5b506100fe600480360360208110156100e857600080fd5b81019080803590602001909291905050506102b2565b604051808273ffffffffffffffffffffffffffffffffffffffff1673ffffffffffffffffffffffffffffffffffffffff16815260200191505060405180910390f35b34801561014c57600080fd5b506101556102e7565b6040518082601060200280838360005b83811015610180578082015181840152602081019050610165565b5050505090500191505060405180910390f35b34801561019f57600080fd5b506101cc600480360360208110156101b657600080fd5b8101908080359060200190929190505050610331565b6040518082815260200191505060405180910390f35b3480156101ee57600080fd5b5061021b6004803603602081101561020557600080fd5b81019080803590602001909291905050506103bb565b6040518082815260200191505060405180910390f35b6102396103d5565b60006010806020026040519081016040528092919082601080156102a8576020028201915b8160009054906101000a900473ffffffffffffffffffffffffffffffffffffffff1673ffffffffffffffffffffffffffffffffffffffff168152602001906001019080831161025e575b5050505050905090565b6000816010811015156102c157fe5b016000915054906101000a900473ffffffffffffffffffffffffffffffffffffffff1681565b6102ef6103f9565b60108080602002604051908101604052809291908260108015610327576020028201915b815481526020019060010190808311610313575b5050505050905090565b60008082101580156103445750600f8211155b151561034f57600080fd5b3360008360108110151561035f57fe5b0160006101000a81548173ffffffffffffffffffffffffffffffffffffffff021916908373ffffffffffffffffffffffffffffffffffffffff160217905550816010836010811015156103ae57fe5b0181905550819050919050565b6010816010811015156103ca57fe5b016000915090505481565b61020060405190810160405280601090602082028038833980820191505090505090565b6102006040519081016040528060109060208202803883398082019150509050509056fea165627a7a723058208b7f72829e9a8f9a208b1acc92cd330690a3bb6f07608704805a081a4bedf1f80029",
  "source": "pragma solidity ^0.5.0;\n\ncontract Adoption {\n  //创建一个地址数组adopters，16个地址\naddress[16] public adopters;\nuint[16] public cnames;\n\n// Adopting a pet\n        function adopt(uint petId) public returns (uint) {\n          require(petId >= 0 && petId <= 15);//判断PETID合法性\n          adopters[petId] = msg.sender;//存储当前领养人的地址信息\n          cnames[petId] = petId;\n          return petId;\n        }\n//检索领养者的地址信息\n        function getAdopters() public view returns (address[16] memory) {\n          return adopters;\n        }\n//检索宠物名字\n        function getcname() public view returns (uint[16] memory) {\n                  return cnames;\n                }\n\n}\n",
  "sourcePath": "C:/petshop/contracts/Adoption.sol",
  "compiler": {
    "name": "solc",
    "version": "0.5.0+commit.1d4f565a.Emscripten.clang"
  },
  "schemaVersion": "3.0.6",
  "updatedAt": "2019-05-19T02:27:15.056Z",
  "devdoc": {
    "methods": {}
  },
  "userdoc": {
    "methods": {}
  }
}